:10000000758920758DE8758BE8D28E7598705129A9
:100010007438515974385159743851597438515988
:10002000740851597401515974065159740C51593D
:1000300078007B00798051559002C6514451757902
:100040008051559002D5514479C051559002D551F7
:100050004451759002F5C298E599B427D3C298C06F
:1000600082C083798051559002B5514479C0515571
:100070001195D083D08230980EC298E599B4FE04D1
:100080007C0A4134B4FD00E493B4450241A5B4FFB9
:10009000020191216AE8FCEBFDEC75F06484E5F067
:1000A00075F00A84FAABF0EA75F002A475F00A84E0
:1000B000A8F0EB75F002A475F00A84A9F028F8EA1C
:1000C00075F005A475F00A84AEF028F8E92E75F0F5
:1000D0000A84A9F028F8EB75F005A475F00A84AE3F
:1000E000F029F9EA75F006A475F00A84AFF029F951
:1000F000EE2F75F00A84AEF029F9EB75F006A475C1
:10010000F00A84AFF02EFEED75F06484C0F029751E
:06011000F00A84A9F028AA
:1001160075F00A84A8F0D0F0E5F075F00A84C0F016
:100126002E75F00A84AEF02975F00A84A9F028F835
:10013600D0F0E5F02F75F00A84AFF02E75F00A8442
:10014600AEF02975F00A84A9F028F8E82430516742
:10015600E924305167EE24305167EF24305167ECC3
:10016600F8EDFB22B4010231B3B4060231B9B4078B
:100176000231BFB4090231C5B40B0231CBB40E0251
:1001860031D1B4100231D7B4120231DDB4130231C9
:10019600E3B4150231E9B4160231EFB4170231F5B2
:1001A600B4210231FBB400025107A3015F7E107D2A
:1001B600F7410D7E167DB9410D7E177DAF410D7E4F
:1001C6001A7D9C410D7E1D7D8B410D7E237D7441E4
:1001D6000D7E287D68410D7E2C7D5C410D7E2F7D38
:1001E60057410D7E357D4E410D7E387D49410D7E50
:1001F6003C7D45410D7E6B7D27410D7EA07D1A41DC
:100206000D7E217D7C410DC005B400024116C2A6BB
:100216005129D2A65129DDF1D0057E677D145129D9
:10022600DDFC228EF07F06DFFEDEFAAEF0220BBB8F
:0502360000087B000838
:10023B00B828027800DCF20187C0077F00EF93B487
:10024B001003D0072251670F4148E951592275908D
:10025B003F00D297F58000C297518B2275907F009B
:10026B00D297F58000C297519C227EFF7FC8DFFE9C
:10027B00DEFA22C0077E647FC8DFFEDEFAD00722DB
:10028B00C007C0067E147FC8DFFEDEFAD006D0079B
:10029B0022C0067E50DEFED0062279805155900298
:1002AB00E451443098FDC298013053434F524520DE
:1002BB0020202020202020202020105761697469E5
:1002CB006E67205369676E616C1020202020202000
:1002DB00202020202020202010594F555220464905
:1002EB004E414C2053434F5245100000000021005B
:1002FB0021150015171521002115001517152100C3
:10030B0021150015171512001512100012102100DF
:10031B0021150015171521002115001517152100A2
:10032B0021150015171510001210120015122100BF
:10033B002115001517152100211500151715210082
:10034B00211500151715120015121000121021009F
:10035B002115001517152100211500151715210062
:10036B0021150015171510000000120000001513C1
:10037B0012100E00090B0E0015000E1012131513A0
:10038B0012100E001012131513121315161315134A
:10039B0012100E00090B0E0015000E101213151380
:1003AB0012100E0010121300120010000E00151385
:1003BB0012100E00090B0E0015000E101213151360
:1003CB0012100E001012131513121315161315130A
:1003DB0012100E00090B0E0015000E101213151340
:1003EB0012100E0010121300120010000E000B0959
:1003FB000E100E00100E0B090E100E00100E101228
:10040B001317150017151312100E15000E0B0B09F1
:10041B000E100E00100E0B090E100E00100E101207
:10042B001317150017151312100E15000E0B0B09D1
:10043B000E100E00100E0B090E100E00100E1012E7
:10044B001317150017151312100E15000E0B0B09B1
:10045B000E100E00100E0B090E100E0009070607EA
:10046B00090B0E00100E10121317150000000B00D5
:10047B000000000000000B00000000000000100056
:10048B0000171500171513000000150000000B00D6
:10049B000000000000000B00000000000000100036
:1004AB0000171500171500000000150000000B09C0
:1004BB000E100E0010000B090E100E001000101283
:1004CB001317150017001312100E15000E000B0951
:1004DB000E100E0010000B090E100E00090006077F
:1004EB00090B0E0010000000000015000000004575
:00000001FF
